S01A00007369676E6C616E6775616765676C6F7665732E7372656385
S11300000C942A000C9447000C9447000C9447006D
S11300100C9447000C9447000C9447000C94470040
S11300200C9447000C9447000C9447000C94470030
S11300300C9447000C9447000C9447000C94470020
S11300400C9447000C9447000C9447000C94470010
S11300500C94470011241FBECFE5D8E0DEBFCDBF0E
S113006010E0A0E6B0E0E4E2FAE002C005900D92F0
S1130070A23AB107D9F720E0A2EAB0E001C01D928C
S1130080A23AB207E1F70E9431010C9410050C94D6
S11300900000CF93C82F61E081E00E94AA0362E0D0
S11300A081E00E94AA0363E081E00E94AA038BB36B
S11300B09C2F907F8F70892B8BBB63E081E00E9423
S11300C0760389EF90E00197F1F700C0000063E048
S11300D081E00E94AA0320E1C29FC00111249BB3C6
S11300E09F70892B8BBB63E081E00E94760389EFCC
S11300F090E00197F1F700C0000063E081E00E9406
S1130100AA0383EF91E00197F1F700C00000CF91BB
S1130110089541E061E081E00E94050341E062E06E
S113012081E00E94050341E063E081E00E94050351
S113013041E064E080E00E94050341E065E080E086
S11301400E94050341E066E080E00E94050341E06F
S113015067E080E00E9405038BE49DE10197F1F7DD
S113016000C0000082E00E94490085EA9EE00197F9
S1130170F1F700C0000088E20E94490089EF90E096
S11301800197F1F700C000008EE00E94490089EF5A
S113019090E00197F1F700C0000081E00E9449005F
S11301A085EA9EE00197F1F700C0000083E00E9419
S11301B0490083EF91E00197F1F700C00000089532
S11301C0CF93C82F61E081E00E94760362E081E072
S11301D00E94AA0363E081E00E94AA038BB39C2FD0
S11301E0907F8F70892B8BBB63E081E00E94760344
S11301F089EF90E00197F1F700C0000063E081E02F
S11302000E94AA0320E1C29FC00111249BB39F70E6
S1130210892B8BBB63E081E00E94760389EF90E039
S11302200197F1F700C0000063E081E00E94AA0397
S113023083EF91E00197F1F700C00000CF9108959A
S1130240CF93DF93EC0103C00E94E00021968881E4
S11302508111FACFDF91CF91089581E00E94490086
S113026008954F925F926F927F928F929F92AF9276
S1130270BF92CF92DF92EF92FF92CF93DF9300D0A1
S113028000D0CDB7DEB70E94890063E081E00E9410
S1130290CA0280E00E94EE02BC0180E090E00E946D
S11302A059042AE939E949E950E40E94E7036B015A
S11302B07C0181E00E94EE02BC0180E090E00E949B
S11302C059042AE939E949E950E40E94E7034B015A
S11302D05C0182E00E94EE02BC0180E090E00E949A
S11302E059042AE939E949E950E40E94E7032B015A
S11302F03C0183E00E94EE02BC0180E090E00E9499
S113030059042AE939E949E950E40E94E703698379
S11303107A838B839C8320E030E046E553E4C70175
S1130320B6010E940B0518163CF520E030E046E5C6
S113033053E4C501B4010E94E2038823ECF420E0F5
S113034030E046E553E4C301B2010E94E20388238E
S11303509CF420E030E046E553E469817A818B81A6
S11303609C810E940B0518163CF40E942D0180E626
S113037090E00E942001F9C020E030E046E553E41B
S1130380C701B6010E94E20388233CF520E030E077
S113039046E553E4C501B4010E94E2038823ECF46A
S11303A020E030E046E553E4C301B2010E940B05AE
S11303B018169CF420E030E046E553E469817A8124
S11303C08B819C810E94E20388233CF40E942D01CE
S11303D087E690E00E942001C8C020E030E046E5B6
S11303E053E4C701B6010E940B0518163CF520E042
S11303F030E046E553E4C501B4010E94E2038823DA
S1130400ECF420E030E046E553E4C301B2010E947D
S11304100B0518169CF420E030E046E553E46981AE
S11304207A818B819C810E940B0518163CF40E94F2
S11304302D0183E790E00E94200197C020E030E086
S113044046E553E4C701B6010E94E20388233CF564
S113045020E030E046E553E4C501B4010E940B05F9
S11304601816ECF420E030E046E553E4C301B20191
S11304700E940B0518169CF420E030E046E553E496
S113048069817A818B819C810E940B0518163CF44A
S11304900E942D0189E790E00E94200166C020E0BF
S11304A030E046E553E4C701B6010E940B05181677
S11304B03CF520E030E046E553E4C501B4010E9478
S11304C0E2038823ECF420E030E046E553E4C30182
S11304D0B2010E940B0518169CF420E030E046E5BA
S11304E053E469817A818B819C810E94E203882391
S11304F03CF40E942D018CE790E00E94200135C05D
S113050020E030E046E553E4C701B6010E94E2036F
S113051088233CF520E030E046E553E4C501B4010E
S11305200E94E2038823ECF420E030E046E553E443
S1130530C301B2010E94E20388239CF420E030E06E
S113054046E553E469817A818B819C810E94E203B0
S113055088233CF40E942D0184E890E00E9420014D
S113056004C081E990E00E94200180E090E00F90B7
S11305700F900F900F90DF91CF91FF90EF90DF904D
S1130580CF90BF90AF909F908F907F906F905F902F
S11305904F900895813059F018F0823079F014C0EA
S11305A087B18F7787B987B18F7B87B90DC087B142
S11305B08F7787B987B1806487B906C087B18068AF
S11305C087B987B1806487B987B18F7D87B986B1D0
S11305D0682B66B986B1806886B908959AB321E01C
S11305E030E0082E02C0220F331F0A94E2F7209550
S11305F029232ABB97B1892B87B986B1806486B930
S1130600349BFECF84B195B108954130A9F5811191
S11306100BC02AB381E090E002C0880F991F6A954D
S1130620E2F7822B8ABB0895813059F427B381E025
S113063090E002C0880F991F6A95E2F7822B87BB6E
S11306400895823059F424B381E090E002C0880F09
S1130650991F6A95E2F7822B84BB0895833009F0D1
S113066044C021B381E090E002C0880F991F6A95CD
S1130670E2F7822B81BB0895411137C081110CC070
S11306802AB381E090E002C0880F991F6A95E2F7CF
S1130690809582238ABB0895813061F427B381E079
S11306A090E002C0880F991F6A95E2F78095822333
S11306B087BB0895823061F424B381E090E002C0E6
S11306C0880F991F6A95E2F78095822384BB089569
S11306D0833059F421B381E090E002C0880F991F60
S11306E06A95E2F78095822381BB089581110BC03E
S11306F02BB381E090E002C0880F991F6A95E2F75E
S1130700822B8BBB0895813059F428B381E090E0AB
S113071002C0880F991F6A95E2F7822B88BB08955F
S1130720823059F425B381E090E002C0880F991F0C
S11307306A95E2F7822B85BB0895833051F422B386
S113074081E090E002C0880F991F6A95E2F7822B3E
S113075082BB089581110CC02BB381E090E002C0EC
S1130760880F991F6A95E2F7809582238BBB0895C1
S1130770813061F428B381E090E002C0880F991FB2
S11307806A95E2F78095822388BB0895823061F4EC
S113079025B381E090E002C0880F991F6A95E2F7C3
S11307A08095822385BB0895833059F422B381E078
S11307B090E002C0880F991F6A95E2F78095822322
S11307C082BB08950E94960408F481E008950E9473
S11307D0FB030C94D1040E94CA0458F00E94C30481
S11307E040F029F45F3F29F00C94BA0451110C94A1
S11307F005050C94C0040E94E20468F39923B1F344
S1130800552391F3951B550BBB27AA276217730732
S1130810840738F09F5F5F4F220F331F441FAA1FC6
S1130820A9F335D00E2E3AF0E0E832D09150504082
S1130830E695001CCAF72BD0FE2F29D0660F771F30
S1130840881FBB1F261737074807AB07B0E809F016
S1130850BB0B802DBF01FF2793585F4F3AF09E3F9B
S1130860510578F00C94BA040C9405055F3FE4F349
S1130870983ED4F3869577956795B795F7959F5FDE
S1130880C9F7880F911D9695879597F90895E1E02A
S1130890660F771F881FBB1F621773078407BA0789
S11308A020F0621B730B840BBA0BEE1F88F7E095E4
S11308B00895E89409C097FB3EF49095809570954F
S11308C061957F4F8F4F9F4F9923A9F0F92F96E998
S11308D0BB279395F695879577956795B795F1110D
S11308E0F8CFFAF4BB0F11F460FF1BC06F5F7F4FAA
S11308F08F4F9F4F16C0882311F096E911C07723BC
S113090021F09EE8872F762F05C0662371F096E8C4
S1130910862F70E060E02AF09A95660F771F881F93
S1130920DAF7880F9695879597F90895990F000837
S1130930550FAA0BE0E8FEEF16161706E807F907AD
S1130940C0F012161306E407F50798F0621B730B48
S1130950840B950B39F40A2661F0232B242B252BC9
S113096021F408950A2609F4A140A6958FEF811D6C
S1130970811D089597F99F6780E870E060E008950D
S11309809FEF80EC089500240A94161617061806A3
S11309900906089500240A9412161306140605067F
S11309A00895092E0394000C11F4882352F0BB0F10
S11309B040F4BF2B11F460FF04C06F5F7F4F8F4F73
S11309C09F4F089557FD9058440F551F59F05F3FAE
S11309D071F04795880F97FB991F61F09F3F79F05D
S11309E087950895121613061406551FF2CF4695DF
S11309F0F1DF08C0161617061806991FF1CF869561
S1130A007105610508940895E894BB276627772744
S1130A10CB0197F908950E94960408F48FEF089586
S1070A20F894FFCF74
S1130A245065616365210049206C6F766520596FB8
S1130A34752000596F752021004F4B004772656182
S1130A447420210053746F7020506C6561736521A8
S1130A54004E6F7468696E6720446F6E65202121AF
S1050A6400008C
S9030000FC
